:020000040800F2
:10000000700A0020C50600089D0400089F0400082F
:10001000A3040008A7040008AB04000800000000C7
:10002000000000000000000000000000AF04000815
:10003000B104000800000000B30400088B2C000885
:10004000DF060008DF060008DF060008DF060008FC
:10005000DF060008DF060008DF060008733B000823
:10006000DF060008DF060008DF060008DF060008DC
:10007000DF060008DF060008DF060008DF060008CC
:10008000DF060008DF060008DF060008DF060008BC
:10009000DF060008DF060008DF060008DF060008AC
:1000A000DF060008DF060008DF060008DF0600089C
:1000B000DF060008DF060008DF060008DF0600088C
:1000C000DF060008DF060008DF060008DF0600087C
:1000D000DF060008992B0008A72B0008B52B0008A5
:1000E000DF060008DF060008DF060008DF0600085C
:1000F000CD2F0008DF060008DF060008DF06000835
:10010000DF060008DF060008DF060008DF0600083B
:10011000DF060008DF060008DF060008DF0600082B
:10012000DF060008DF060008DF060008DF0600081B
:10013000DF060008DF060008DF060008DF0600080B
:10014000DF060008DF060008DF060008DF060008FB
:10015000DF060008DF060008DF060008DF060008EB
:10016000DF060008DF060008DF060008DF060008DB
:10017000DF060008DF060008DF060008DF060008CB
:10018000DF060008DF06000800F002F800F074F84F
:100190000AA090E8000C82448344AAF10107DA45E2
:1001A00001D100F069F8AFF2090EBAE80F0013F0C0
:1001B000010F18BFFB1A43F0010318478C580000C9
:1001C000AC5800000A444FF0000C10F8013B13F04B
:1001D000070408BF10F8014B1D1108BF10F8015BA0
:1001E000641E05D010F8016B641E01F8016BF9D193
:1001F00013F0080F1EBF10F8014BAD1C0C1B09D1EA
:100200006D1E58BF01F801CBFAD505E014F8016B5B
:1002100001F8016B6D1EF9D59142D6D370470000ED
:100220000023002400250026103A28BF78C1FBD8FF
:10023000520728BF30C148BF0B607047662905F0E0
:10024000828303681B0A28BF41F08001642903F000
:100250003185E42903F06885002070471FB505F05B
:1002600068FB04F03FF904000020002104F050FE78
:10027000E0601FBD10B510BD04F004FA1146FFF791
:10028000EDFF00F009F804F022FA03B4FFF7F2FFE3
:1002900003BC02F073FC00002DED048BACB002F047
:1002A0006EFD24226449684603F02AFE6248103835
:1002B000D0F8A0400FC8A04724225F4934316846D7
:1002C00003F01EFE5C481038D0F8A04034300FC850
:1002D000A047242258496831684603F011FE564869
:1002E0001038D0F8A04068300FC8A0475348D0E974
:1002F00004128069CDE9001202905048B838D0F855
:10030000E040803038300FC8A04714224C4968467E
:1003100003F0F6FD4A481038446A0FC8A0479422FB
:100320004849684603F0ECFD46481038D0F8A44030
:100330000FC8A04743491039D1F8940000F03FFBA3
:1003400040481038D0F8B01025A8884728223E49E8
:10035000684603F0D5FD3C481038046D0FC8A0472F
:1003600068E002F09CFC394A13685468C21A61EBD9
:1003700004014FF4FA73D21A71F100015AD3182212
:100380002F49091F684603F0BBFD2D481038C46A89
:100390000EC82BA8A0472B9805F02AFA41EC180BA1
:1003A00053EC182B2AA003F079FC26481038D0F81B
:1003B000B41025A888479DED2A0A10EE101A0846A9
:1003C00005F016FA41EC180B9DED290A10EE101AF3
:1003D000084605F00DFA41EC190B8DED028B8DED01
:1003E000009BBDF89A30BDF894209DF9A0101C48E0
:1003F00003F054FC14491039D1E91043224619A0E6
:1004000003F04CFC0D49B839D1F8D40080470446BC
:1004100022460B4619A003F041FC02F040FC0446C2
:1004200022460B4619A003F039FC02F038FC074ABB
:100430001060516095E7000040000020B8010020E6
:10044000A802002004030020C003002000000020B8
:1004500074656D703A20252E32660D0A000000008A
:10046000E0590008474B3130355F312E636F756EB0
:100470007465723A20256C6C640D0A00757374699A
:10048000636B733A20256C6C640D0A006D7374699C
:10049000636B733A20256C6C640D0A00704700BFD3
:1004A000FEE700BFFEE700BFFEE700BFFEE77047C4
:1004B000704770470CB500200190009076480068A6
:1004C00040F480307449086000BF7348006800F44D
:1004D000003000900198401C0190009818B90198D4
:1004E000B0F5A04FF1D16C48006800F4003010B1B5
:1004F0000120009001E0002000900098012846D1E2
:1005000065484030006840F08050634940310860E1
:100510006248006840F44040604908605E48083026
:1005200000685D49083108600846006840F40040F2
:1005300008600846006840F4A05008605848091F49
:100540000860081F006840F08070091F086000BF45
:100550005148006800F000700028F9D040F20570A2
:10056000504908604C480830006820F003004A49B0
:10057000083108600846006840F00200086000BFCB
:1005800045480830006800F00C000828F8D10CBD80
:1005900010B54548006840F47000434908603E4883
:1005A000006840F001003C49086000203A490831E9
:1005B0000860394800683D490840374908603C48B0
:1005C000091D0860081F006820F48020091F0860CA
:1005D000002031490C310860FFF76CFF4FF00060DC
:1005E00031498039086010BD70B500200022022317
:1005F00000240221284D08352D6805F00C0020B19B
:10060000042806D0082834D107E02A4D2A4E356048
:1006100033E02A4D284E35602FE01F4D2D1D2D68EB
:10062000C5F380541C4D2D1D2D6805F03F0154B1BC
:10063000224DB5FBF1F5184E361D3668C6F3881607
:1006400005FB06F209E01B4DB5FBF1F5124E361D18
:100650003668C6F3881605FB06F20F4D2D1D2D6872
:10066000C5F301456D1C6B00B2FBF3F5124E35600E
:1006700003E0104D104E356000BF00BF064D083539
:100680002D68C5F303150E4E705D0B4D2D68C540EA
:10069000094E356070BD0000003802400070004017
:1006A00008544007003C024088ED00E0FFFFF6FEE2
:1006B000103000240024F4000800002000127A000A
:1006C0000C0000200948804709480047FEE7FEE784
:1006D000FEE7FEE7FEE7FEE7FEE7FEE7FEE7FEE7F2
:1006E00004480549054A064B70470000910500087B
:1006F0008901000870040020700A002070060020A4
:100700007006002032490143324A1160704770B5CB
:10071000002100230F22C4781CB32E4C246804F45B
:10072000E064C4F5E064C4F30721C1F10404E3B25A
:100730000A4144789C40E1B28478144021430C077C
:10074000210E254C05786155047804F01F0501241D
:10075000AC4005786D11AD0005F1E025C5F800410C
:1007600009E0047804F01F050124AC401B4D067815
:10077000761145F8264070BD194A0A400243154BD0
:100780001B1F1A60704739B1124A121D12680243CA
:10079000104B1B1D1A6006E00E4A121D12688243A0
:1007A0000C4B1B1D1A607047042808D14FF0E02144
:1007B000096941F004014FF0E022116107E04FF0B8
:1007C000E021096921F004014FF0E0221161704736
:1007D0000000FA050CED00E000E400E080E100E03C
:1007E00080FFFF1F10B50121080201F05CF8002115
:1007F0004FF4807001F057F810BD30B5024600206C
:1008000000235068F84C20400D790C6844EA052418
:10081000204350609068F54C2040D1E903542C43AC
:100820008D682C434D7944EA450420439060D06A9A
:1008300020F470000C7D641EE4B2234340EA0350B0
:10084000D06230BD00210160017141718160C160E1
:1008500001610121017570470021E54A1168E54AEF
:100860001140D0E900231A4383681A43C3681A432E
:100870001143E14AC2F8041370470021016041604E
:100880008160C160704721B1826842F001028260DC
:1008900003E0826822F00102826070470A4600216C
:1008A0004168D64B194011434160704741628262F2
:1008B00070470A460021416821F01F011143416041
:1008C000704738B1CA49096841F40001CA4AC2F800
:1008D000041306E0C649096821F40001C64AC2F8BB
:1008E0000413704738B1C249096841F48001C24A13
:1008F000C2F8041306E0BE49096821F48001BE4A2B
:10090000C2F804137047F0B504460D4600200021DC
:10091000092D11DDE068A5F10A0606EB460707265A
:1009200006FA07F18843A5F10A0606EB460603FA24
:1009300006F10843E0600CE0206905EB4507072657
:1009400006FA07F1884305EB450603FA06F108436A
:100950002061072A0FDA606B561E06EB86071F26FA
:1009600006FA07F18843561E06EB860605FA06F1DD
:100970000843606322E00D2A0FDA206BD61F06EBD6
:1009800086071F2606FA07F18843D61F06EB860660
:1009900005FA06F10843206310E0E06AA2F10D06B3
:1009A00006EB86071F2606FA07F18843A2F10D061B
:1009B00006EB860605FA06F10843E062F0BD8168A1
:1009C00041F0804181607047014600208A6802F052
:1009D00080420AB1012000E00020704721B1826806
:1009E00042F48062826003E0826822F48062826066
:1009F000704721B1826842F00202826003E082689F
:100A000022F002028260704710B50A4600210023DE
:100A1000416821F46041531E41EA4331416010BDF9
:100A200021B1426842F40062426003E0426822F46D
:100A30000062426070470146C86C80B270476C48E3
:100A4000001D0068704721B1826842F480728260A4
:100A500003E0826822F480728260704721B182686C
:100A600042F40072826003E0826822F400728260C5
:100A7000704738B15E49096841F400515E4AC2F8D6
:100A8000041306E05A49096821F400515A4AC2F891
:100A900004137047F0B504461546002000220026D6
:100AA000092911DDE068A1F10A0707EB470C0727C8
:100AB00007FA0CF29043A1F10A0707EB470703FA84
:100AC00007F21043E0600CE0206901EB410C0727BE
:100AD00007FA0CF2904301EB410703FA07F21043C7
:100AE0002061A06BC0F30156EF1C06F1010CA7EBCF
:100AF0000C0707EB870C1F2707FA0CF29043EF1C3B
:100B000006F1010CA7EB0C0707EB870701FA07F2C8
:100B10001043A063F0BD10B50A4600210023816B8D
:100B200021F44011531E41EA0351816310BD08B501
:100B3000002300930090009B0B440093009B1A60DD
:100B400008BD0A460021816821F4702111438160AB
:100B500070470A460021816821F4401111438160E9
:100B60007047816841F48001816070470146002030
:100B70008A6802F480020AB1012000E00020704778
:100B800021B1426842F48062426003E0426822F48C
:100B900080624260704721B1426842F480524260F4
:100BA00003E0426822F480524260704708B5024672
:100BB00000200090009201F12800009B1844009052
:100BC0000098006880B208BD10B50B460021D9B26C
:100BD000012404FA01F11AB144680C43446002E0B4
:100BE00044688C43446010BDFFFEFFFCFDF7FFC06E
:100BF00004230140E030FCFF00200140FFFD3FFFE7
:100C00000246002013680B400BB1012000E00020D9
:100C10007047CA430260704770B502460020002347
:100C200000240B12556801268E4005EA060415685B
:100C30001D4015B10CB1012000E0002070BD002264
:100C40000A12D34303607047016821F0010101607B
:100C50000021016041608160C16001612121416129
:100C6000DB49884204D13D21D94A103A91608CE099
:100C7000D7491831884205D14FF47461D44A103AEB
:100C8000916082E0D2493031884205D14FF474112D
:100C9000CF4A103A916078E0CD494831884205D179
:100CA0004FF07461CA4A103A91606EE0C8496031F1
:100CB000884204D1C749C64A103AD16065E0C449A8
:100CC0007831884204D1C449C14A103AD1605CE00D
:100CD000BF499031884204D1C049BD4A103AD16021
:100CE00053E0BB49A831884205D14FF03D51B84A85
:100CF000103AD16049E0BA49884204D13D21B84A4E
:100D0000083A116041E0B6491831884205D14FF4E4
:100D10007461B34A083A116037E0B1493031884212
:100D200005D14FF47411AE4A083A11602DE0AC4978
:100D30004831884205D14FF07461A94A083A1160E0
:100D400023E0A7496031884204D1A249A44A121F76
:100D500011601AE0A2497831884204D19E49A04A24
:100D6000121F116011E09E499031884204D19B49C5
:100D70009B4A121F116008E09949A831884204D1AA
:100D80004FF03D51964A121F1160704710B5002276
:100D90000268944B1A40CC680B6823434C69234388
:100DA0008C692343CC6923430C6A23434C6A234355
:100DB0008C6A23434C6B23438C6B23431A4302609E
:100DC000426922F00702D1E90B3423431A434261FE
:100DD0000B6943604B6883608B68C36010BD002162
:100DE000016041608160C160016141618161C161F7
:100DF000016241628162C162016341638163704744
:100E000021B1026842F00102026003E0026822F0B0
:100E100001020260704721B1026842F400420260A0
:100E200003E0026822F400420260704721B10268C8
:100E300042F02002026003E0026822F02002026019
:100E40007047416070470146486880B2704722B1E0
:100E5000036843F40023036003E0036823F40023E2
:100E600003600161704721B1026842F48022026090
:100E700003E0026822F48022026070470AB1016137
:100E800000E0C1607047014600200A6802F40022B9
:100E90000AB1012000E000207047014600200A68E6
:100EA00002F001020AB1012000E000207047014673
:100EB00000204A6902F03800704730B503460A4600
:100EC00000200024464DAB4202D24149103901E0D6
:100ED0004349103902F000550DB14C6800E00C6830
:100EE000414D2C4004EA02050DB1012000E0002034
:100EF00030BD02463A4B9A4202D23548103801E0E2
:100F00003748103801F000531BB1374B0B40C3601A
:100F100002E0354B0B408360704710B501F0800351
:100F20004BB122B1436943F08003436103E043695D
:100F300023F08003436180290BD02AB1036801F0BC
:100F40001E042343036004E0036801F01E04A3436E
:100F5000036010BD70B50246002000240025204E1D
:100F6000B24202D21A4B103B01E01D4B103B1F4E08
:100F70000E4036B11E2606EAD124166806EA04059C
:100F800002E0566906F0800501F000560EB15C687B
:100F900000E01C68144E344004EA010616B10DB19D
:100FA000012000E0002070BD02460D4B9A4202D2A3
:100FB0000748103801E00A48103801F000531BB10F
:100FC000094B0B40C36002E0074B0B408360704746
:100FD000106002403D000020400F002000003D2036
:100FE000106402403F801CF07D0F7D0F3C0F3C0FD2
:100FF000002041490860091D0860091D0860091D9D
:1010000008603E483C4914310860704700213A4965
:101010008279002A3AD00A46126803689A430B463E
:101020001A600A1D126803689A430B1D1A60027940
:1010300011440A6803681A430A602F4A083212688A
:1010400003689A432C4B08331A601A1D1268036810
:101050009A43294B0C331A604279102A0ED11A1F79
:10106000126803681A43244B08331A601A1D126869
:1010700003681A43204B0C331A600DE01E49427975
:1010800011440A6803681A430A6005E002791144B2
:101090000A6803689A430A60704700210160017181
:1010A0000C21417100218171704713491031096889
:1010B0000143114A103211607047014600200E4A68
:1010C000143212680A400AB1012000E00020704783
:1010D000094914310860704701460020064A14325D
:1010E00012680A400AB1012000E00020704702495E
:1010F0001431086070470000003C0140FFFF7F0092
:1011000010B504469848844208D10121084600F0F1
:1011100086FB0021012000F082FB76E093488442A8
:1011200008D10121022000F07AFB0021022000F00A
:1011300076FB6AE08E48844208D10121042000F049
:101140006EFB0021042000F06AFB5EE089488442C7
:1011500008D10121082000F062FB0021082000F0E6
:101160005EFB52E08448844208D10121102000F047
:1011700056FB0021102000F052FB46E07F488442DD
:1011800008D10121202000F04AFB0021202000F09E
:1011900046FB3AE07A48844208D10121402000F021
:1011A0003EFB0021402000F03AFB2EE075488442CF
:1011B00008D10121802000F032FB0021802000F0C6
:1011C0002EFB22E07048844208D10121801500F0F6
:1011D00026FB0021A01500F022FB16E06B4884429C
:1011E00008D10121401500F01AFB0021601500F024
:1011F00016FB0AE06648844207D10121001500F081
:101200000EFB0021201500F00AFB10BDF0B50A46C8
:1012100000210023002400BF3DE0012505FA01F371
:10122000156805EA03049C4234D105684F00032683
:10123000BE40B543056015794E00B540066835439C
:1012400005601579012D02D01579022D16D185681A
:101250004F000326BE40B543856055794E00B5402A
:10126000866835438560456801268E40B5434560F4
:10127000456896798E40B6B235434560C5684F00E3
:101280000326BE40B543C560D5794E00B540C6685B
:101290003543C560491C1029BFD3F0BD4FF6FF711F
:1012A00001600021017141718171C171704708B500
:1012B0004FF480320092009A0A430092009AC26171
:1012C000C161009AC261C2690092C269009208BD00
:1012D0000246002013690B400BB1012000E0002002
:1012E00070470146086980B2704702460020536982
:1012F0000B400BB1012000E0002070470146486917
:1013000080B2704701837047418370470AB10183FF
:1013100000E0418370474161704742694A40426141
:101320007047F0B5002300244D07ED0E02FA05F3D7
:10133000CE1000F1200555F826504E07F70E0F2667
:10134000BE40B543CF1000F1200646F82750CE101E
:1013500000F1200555F8265045EA0304CE1000F1AF
:10136000200545F82640F0BD000002400004024080
:1013700000080240000C024000100240001402402D
:1013800000180240001C02400020024000240240DD
:1013900000280240F948006840F00100F749086061
:1013A0000020F64908310860F4480068F449084014
:1013B000F2490860F348091D0860F348EF49843199
:1013C0000860F0481038091D0860EC48006820F4F7
:1013D0008020EA4908600020E8490C310860E749AC
:1013E0008C31086070470021E44A921C117011464C
:1013F0000870704710B501460022002300204A11F2
:10140000012A02D1DD4C236808E0022A03D1DB4C1B
:101410007034236802E0D94C7434236801F01F0251
:10142000012494401C400CB1012000E0002010BDBC
:1014300038B5002000900024002500BF3120FFF7C0
:10144000D9FF05460098401C00900098B0F5A04FC9
:1014500001D0002DF2D03120FFF7CCFF08B10124DC
:1014600000E00024204638BD01460020C34A106831
:1014700020F0F80040EAC10010607047C3490860DE
:1014800070470021BD4A703211701170012802D0DE
:1014900004280AD104E00121B84A7032117005E035
:1014A0000521B64A7032117000E000BF00BF7047DE
:1014B000B7490860704770B5049C41EA821501265F
:1014C000C6EB530645EA0645054345EA0465AB4EBF
:1014D000361D356070BDAD4908667047820142EA2D
:1014E0000172A64B84331A607047A849886670471A
:1014F00010B5830143EA016343EA02739F4C8834C9
:10150000236010BDA14908677047A049C8647047AF
:1015100002460020994B0833186820F0EC6042EA3C
:1015200001031843954B08331860704702460020AA
:10153000924B0833186820F0784042EA01031843C0
:101540008E4B083318607047014600208B4A0832E2
:10155000106820F003000843106070478748083087
:10156000006800F00C00704701460020834A0832F2
:10157000106820F0F000084310607047014600201A
:101580007E4A0832106820F4E0500843106070472B
:1015900001460020794A0832106820F4604040EA91
:1015A000C10010607047F0B5002100220024022520
:1015B00000260223714F08373F6807F00C0121B164
:1015C000042905D0082937D105E0724F076036E0BD
:1015D000714F076033E0694F3F1D3F68C7F3805686
:1015E000664F3F1D3F6807F03F036EB16A4FB7FB80
:1015F000F3F7DFF888C10CF1040CDCF800C0CCF381
:10160000881C07FB0CF40CE0624FB7FBF3F7DFF824
:101610006CC10CF1040CDCF800C0CCF3881C07FB97
:101620000CF4564F3F1D3F68C7F301477F1C7D00F8
:10163000B4FBF5F7076002E0564F076000BF00BF3C
:101640004E4F08373F6807F0F0010909534F7A5CA5
:101650000768D7404760494F08373F6807F4E051B3
:10166000890A4E4F7A5C4768D7408760434F0837F6
:101670003F6807F46041490B484F7A5C4768D740A0
:10168000C760F0BD002100F44072B2F5407F0AD17E
:101690003A4A0832116821F4F811414A02401143D4
:1016A000364A08321160354A70321268C0F30B03B3
:1016B0001A43324B70331A60704735494439086019
:1016C00070473349403908607047364908607047B1
:1016D00001460020294A8C32106820F01F004A1E63
:1016E0001043264A8C321060704701460020234A7E
:1016F0008C32106820F4F8504A1E40EA02201F4A3B
:101700008C3210607047014600201C4A8C321068F1
:1017100020F4401008431060704701460020174A2B
:101720008C32106820F44000084310607047014676
:101730000020124A8C32106820F4403008431060B8
:10174000704719490860704739B10C4A3032126845
:1017500002430A4B30331A6006E0084A30321268FE
:101760008243064B30331A607047F9B1034A343272
:1017700012680243014B34331A601CE00038024007
:10178000FFFFF6EA1030002400300020000047423E
:10179000800E47420024F40000127A001C00002052
:1017A000FFFCFF0F5C014742E01147428F4A12687D
:1017B00082438E4B1A60704739B18C4A121D1268F1
:1017C00002438A4B1B1D1A6006E0884A121D1268EC
:1017D0008243864B1B1D1A60704739B1834A0C3215
:1017E00012680243814B0C331A6006E07F4A0C32C8
:1017F000126882437D4B0C331A60704739B17B4AC3
:10180000103212680243794B10331A6006E0774AAF
:10181000103212688243754B10331A60704739B129
:10182000724A243A12680243704B243B1A6006E065
:101830006E4A243A126882436C4B243B1A6070470C
:1018400039B16A4A203A12680243684B203B1A6059
:1018500006E0664A203A12688243644B203B1A60D5
:10186000704739B1614A1C3A126802435F4B1C3B16
:101870001A6006E05D4A1C3A126882435B4B1C3BCF
:101880001A60704739B1594A143A12680243574BEB
:10189000143B1A6006E0554A143A12688243534BCF
:1018A000143B1A60704739B1504A103A126802432B
:1018B0004E4B103B1A6006E04C4A103A12688243C5
:1018C0004A4B103B1A60704739B1484A1C321268C3
:1018D0000243464B1C331A6006E0444A1C3212682D
:1018E0008243424B1C331A60704739B13F4A203261
:1018F000126802433D4B20331A6006E03B4A203217
:1019000012688243394B20331A60704739B1374A25
:10191000243212680243354B24331A6006E0334AFE
:10192000243212688243314B24331A60704739B134
:101930002E4A2C32126802432C4B2C331A6006E0DC
:101940002A4A2C3212688243284B2C331A60704783
:1019500039B1264A303212680243244B30331A60C0
:1019600006E0224A303212688243204B30331A603C
:101970007047012808D11D493C31096841F0080130
:101980001A4A3C32116007E018493C31096821F0DD
:101990000801164A3C321160704739B1134A273AA0
:1019A00012780243114B273B1A7006E00F4A273A80
:1019B000127882430D4B273B1A7070470B4840301A
:1019C000006840F080700949403108607047014666
:1019D0000020064A283A12680A400AB1012000E0B5
:1019E000002070470149263908707047343802409A
:1019F00010B501218803FFF756FF00214FF4804006
:101A0000FFF751FF10BD1C49086070471B49086271
:101A1000704730B500228B071C0F0F2303FA04F226
:101A2000154B08338C1053F824309343124C083470
:101A30008D1044F8253023468C1053F824308C0741
:101A4000240F00FA04F423430B4C08348D1044F89F
:101A5000253030BD0949DC3108607047084908600D
:101A60007047002004492031096801F4807109B1F0
:101A7000012000E0002070470038014000002742AC
:101A80000004274210B50446FE48844208D10121D3
:101A90000846FFF708FF00210120FFF704FF9DE043
:101AA000B4F1804F08D101210846FFF7EBFE002179
:101AB0000120FFF7E7FE91E0F348844208D10121BD
:101AC0000220FFF7DFFE00210220FFF7DBFE85E0AA
:101AD000EE48844208D101210420FFF7D3FE002103
:101AE0000420FFF7CFFE79E0E948844208D10121C4
:101AF0000820FFF7C7FE00210820FFF7C3FE6DE0B6
:101B0000E448844208D101211020FFF7BBFE0021E8
:101B10001020FFF7B7FE61E0DF48844208D10121C1
:101B20002020FFF7AFFE00212020FFF7ABFE55E09D
:101B3000DA48844208D101210220FFF7B4FE0021D7
:101B40000220FFF7B0FE49E0D548844209D10121C7
:101B50000804FFF7A8FE00214FF48030FFF7A3FE32
:101B60003CE0D048844209D101214804FFF79BFEA4
:101B700000214FF40030FFF796FE2FE0CA48844260
:101B800009D101218804FFF78EFE00214FF4802047
:101B9000FFF789FE22E0C548844208D10121402098
:101BA000FFF770FE00214020FFF76CFE16E0C048F2
:101BB000844208D101218020FFF764FE00218020AB
:101BC000FFF760FE0AE0BB48844207D1012180157F
:101BD000FFF758FE0021A015FFF754FE10BD0022AC
:101BE0000288A84B98420ED0AC4B98420BD0B0F173
:101BF000804F08D0A44B984205D0A44B984202D005
:101C0000A34B984204D14FF68F731A404B881A4366
:101C1000A04B984207D0A04B984204D04FF6FF4308
:101C20001A400B891A4302804B68C3620B880385F4
:101C3000944B984202D0994B984201D18B7A0386FB
:101C40000123838270474FF0FF3141600021018002
:101C500001814180817270470185828270470A4606
:101C6000002101884FF68F7319401143018070479E
:101C700041627047C16270470146486A7047014639
:101C8000088D704721B1028842F00202028004E010
:101C900002884FF6FD731A400280704721B1028816
:101CA00042F00402028004E002884FF6FB731A40FF
:101CB0000280704721B1028842F08002028004E075
:101CC00002884FF67F731A400280704702884FF6F1
:101CD000F7731A40028002880A4302807047028824
:101CE0004FF6FF431A40028002880A430280704781
:101CF00021B1028842F00102028004E002884FF61E
:101D0000FE731A400280704770B500240022002341
:101D1000058C4FF6FE7635400584028C8388048B53
:101D20004FF68F752C40B51E2C400D882C43751E28
:101D30002A408D892A434D882A43524DA84202D019
:101D4000564DA84213D14FF6F7752A40CD892A4344
:101D50004FF6FB752A408D882A434FF6FF652B40CE
:101D60004FF6FF552B400D8A2B434D8A2B43838022
:101D700004838D684563028470BD70B50024002221
:101D80000023058C4FF6EF7635400584028C83885E
:101D9000048B48F6FF752C404FF6FF452C400D880C
:101DA0004FF6FF7606EA05252C434FF6DF752A40ED
:101DB0008D8906EA05152A434D8806EA05152A434A
:101DC000304DA84202D0354DA8421DD14FF67F7547
:101DD0002A40CD894FF6FF7606EA05152A434FF6CD
:101DE000BF752A408D8806EA05152A434FF6FF3550
:101DF0002B404FF2FF752B400D8A06EA85052B43D9
:101E00004D8A06EA85052B43838004838D688563AC
:101E1000028470BD70B5002400220023058C4FF6AB
:101E2000FF6635400584028C8388848B4FF68F755E
:101E30002C404FF6FC752C400D882C434FF6FF5577
:101E40002A408D894FF6FF7606EA05252A434D88FC
:101E500006EA05252A430B4DA84202D00F4DA842A1
:101E600038D14FF2FF752A40CD894FF6FF7606EA4A
:101E700005252A434FF6FF352A408D8806EA0525B9
:101E80002A4319E00000014000040040000800401F
:101E9000000C00400010004000140040000401400D
:101EA000004001400044014000480140001800404B
:101EB000001C0040002000404EF6FF752B404DF600
:101EC000FF752B400D8A06EA05152B434D8A06EA5D
:101ED00005152B43838084838D68C563028470BDA0
:101EE00070B5002200230024058C4EF6FF763540A5
:101EF0000584038C8488828B48F6FF752A404FF650
:101F0000FF452A400D884FF6FF7606EA05252A434D
:101F10004DF6FF752B408D8906EA05352B434D881C
:101F200006EA05352B43FE4DA84202D0FD4DA842DE
:101F300008D14BF6FF752C400D8A4FF6FF7606EA66
:101F400085152C43848082838D680564038470BD6D
:101F5000002101804180818081608181C181018275
:101F60004182704770B5034600200024184618309F
:101F700001258D40ACB21D8CA5431D8409B10829F3
:101F80000AD100EB610005684FF68F763540056099
:101F90000568154305600FE00D1FC5F34E05284485
:101FA000056848F6FF763540056005684FF6FF7610
:101FB00006EA02263543056070BD416370478163C0
:101FC0007047C1637047016470470A460021018B66
:101FD0004FF68F7319401143018370470A46002161
:101FE000018B48F6FF7319404FF6FF7303EA022393
:101FF0001943018370470A460021818B4FF68F7386
:1020000019401143818370470A460021818B48F6AD
:10201000FF7319404FF6FF7303EA022319438183CC
:1020200070470A460021018B4FF6F77319401143A0
:10203000018370470A460021018B4FF2FF7319405C
:102040004FF6FF7303EA02231943018370470A46E0
:102050000021818B4FF6F77319401143818370473C
:102060000A460021818B4FF2FF7319404FF6FF7330
:1020700003EA02231943818370470A460021018B3A
:102080004FF6FB7319401143018370470A46002144
:10209000018B4FF6FF3319404FF6FF7303EA02231B
:1020A0001943018370470A460021818B4FF6FB7369
:1020B00019401143818370470A460021818B4FF6F6
:1020C000FF3319404FF6FF7303EA0223194381835C
:1020D00070470A460021018B4FF67F731940114368
:1020E000018370470A460021018BC1F30E014FF6B0
:1020F000FF7303EA02231943018370470A46002154
:10210000818B4FF67F7319401143818370470A46D4
:102110000021818BC1F30E014FF6FF7303EA022306
:102120001943818370470A460021018C4FF6FD73E5
:1021300019401143018470470A460021018C4FF673
:10214000F77319401143018470470A460021018C3E
:102150004FF6DF7319404FF6FF7303EA021319437A
:10216000018470470A460021018C4FF67F731940A5
:102170004FF6FF7303EA02131943018470470A46BE
:102180000021018C4FF6FF5319404FF6FF7303EA0D
:1021900002231943018470470A460021018C4FF243
:1021A000FF7319404FF6FF7303EA022319430184BA
:1021B00070470A460021018C4DF6FF7319404FF617
:1021C000FF7303EA023319430184704730B50023DB
:1021D00001248C40A3B2048C9C430484048C02FA36
:1021E00001F5ADB22C43048430BD30B50023042486
:1021F0008C40A3B2048C9C430484048C02FA01F545
:10220000ADB22C43048430BD828B4FF2FF331A40B1
:102210008283828B4FF6FF7303EA01231A43828382
:102220007047F0B50C461546002100220026078CA9
:102230004EF6FF7C07EA0C070784818B028C4FF671
:10224000FF7707EA043640F6FF4739404FF6FF773D
:1022500007EA052739434FF6FF7707EA0337394383
:1022600045F6FF773A4046F480573A43818302842B
:10227000F0BD828B4FF6F3731A408283828B0A4340
:1022800082837047F0B50C461546002100220026D7
:10229000078C4FF6FF6C07EA0C070784818B028CD2
:1022A0004FF6FF7707EA04264FF60C7739404FF6D2
:1022B000FF7707EA03172F4339434FF2FF573A409E
:1022C00046F480773A4381830284F0BD028B4FF25B
:1022D000FF331A400283028B4FF6FF7303EA012398
:1022E0001A4302837047F0B50C46154600210022C0
:1022F0000026078C4FF6EF7C07EA0C070784018B5A
:10230000028C4FF6FF7707EA041640F6FF47394084
:102310004FF6FF7707EA033739434FF6FF7703E0BD
:10232000000001400004014007EA052739434FF649
:102330005F773A4046F010073A4301830284F0BDCC
:10234000028B4FF6F3731A400283028B0A43028317
:102350007047F0B50C46154600210022068C4FF65A
:10236000FE773E400684018B028C4FF60C7631409E
:102370007E1C06EA03162E4331434FF6F5763240B3
:1023800044F00106324301830284F0BD70B5054676
:102390000C46208850B92389A28861882846FFF717
:1023A000D8FFE1882846FFF7CBFF25E020880428E6
:1023B0000AD12389A28861882846FFF794FFE18823
:1023C0002846FFF783FF17E0208808280AD12389D1
:1023D000A28861882846FFF755FFE1882846FFF765
:1023E00048FF09E02389A28861882846FFF719FF82
:1023F000E1882846FFF708FF70BD00210180418079
:10240000012181800021C180018170472DE9F041C7
:1024100005460C4600260127608808B9022600E020
:102420000026A088012801D1022700E0012720888A
:10243000A0B92389A28861882846FFF78AFFE1882E
:102440002846FFF77DFF23893A4631462846FFF7A5
:102450004AFFE1882846FFF739FF13E02389A28865
:1024600061882846FFF73FFFE1882846FFF72EFFE7
:1024700023893A4631462846FFF76BFFE188284614
:10248000FFF75EFFBDE8F0810146486B70470146EB
:10249000886B70470146C86B70470146086C7047EF
:1024A0000A884B881A438B881A43CB881A430B89B6
:1024B0001A434B891A438B891A43A0F8442070476A
:1024C0000021018041808180C18001814181818121
:1024D000704731B1B0F8442042F40042A0F84420E3
:1024E00005E0B0F84420C2F30E02A0F84420704783
:1024F00021B1828842F00402828004E082884FF693
:10250000FB731A408280704721B1828842F0010239
:10251000828004E082884FF6FE731A408280704702
:102520001AB183890B43838102E083898B438381C2
:1025300070478182704702460020138A0B400BB11E
:10254000012000E000207047CA430282704730B586
:102550000246002000230024158A05EA010395891C
:1025600005EA010413B10CB1012000E0002030BDE8
:10257000CA430282704741EA0203A0F8483070471C
:102580001AB183890B43838102E083898B43838162
:10259000704721B1828842F00802828004E082887C
:1025A0004FF6F7731A408280704701894FF6F87230
:1025B0001140018170470A46002101894FF68F734F
:1025C000194011430181704730B504460D46294634
:1025D0002046FFF7F0FF208940F00700208130BD42
:1025E0002DE9F04104460D4616461F46602D06D1E2
:1025F0003B46012231462046FFF775FE05E03B468B
:10260000012231462046FFF7A4FE29462046FFF767
:10261000D2FF208940F007002081BDE8F08130B56D
:102620000C4600210189C9B24FF6FF7505EA032562
:10263000154325432943018130BD2DE9F04105466D
:102640000E4617469846002443463A4631462846E9
:10265000FFF7E5FF2C894FF6F870044044F00704BB
:102660004FF68F70044044F070042C81BDE8F08177
:10267000F0B504460D4616461F463B4632462946EF
:102680002046FFF7CCFF208940F480402081F0BD38
:1026900082884FF68F731A40828082880A43828034
:1026A000704702894FF6F8731A40028102890A4383
:1026B0000281704702894FF67F731A4002810289B6
:1026C0000A4302817047F0B50C4615461E460021AC
:1026D000002200230189028B038C4FF6F8773940E2
:1026E00021434FF6FC473A4040F201173A434FF678
:1026F000DD773B404FF6FF7707EA06172F433B4352
:10270000018102830384F0BD21B1828842F08002FE
:10271000828004E082884FF67F731A40828070477F
:10272000A0F850107047000010B50446FA488442E3
:1027300008D101211020FFF7B6F800211020FFF783
:10274000B2F857E0F548844209D101214804FFF767
:1027500099F800214FF40030FFF794F84AE0F04870
:10276000844209D101218804FFF78CF800214FF43D
:102770008020FFF787F83DE0EA48844209D1012133
:10278000C804FFF77FF800214FF40020FFF77AF824
:1027900030E0E548844209D101210805FFF772F8CD
:1027A00000214FF48010FFF76DF823E0DF488442EA
:1027B00008D101212020FFF776F800212020FFF723
:1027C00072F817E0DA48844209D101218807FFF73F
:1027D00059F800214FF08040FFF754F80AE0D5483F
:1027E000844207D101214005FFF74CF80021600524
:1027F000FFF748F810BD2DE9FF4705460E460024B7
:10280000A14600BFA046B08900B100BF2C8A24F4C5
:102810004054F08804432C82AC8941F20C6084431C
:10282000B08831890843718908430443AC81AC8A7C
:1028300024F44074B0890443AC826846FEF7B3FECA
:10284000B548854202D0B948854202D1DDF80C90E6
:1028500001E0DDF80890A88900F4004040B109EBE0
:10286000C90000EB091031684900B0FBF1F707E03F
:1028700009EBC90000EB091031688900B0FBF1F7E2
:102880006420B7FBF0F004012009642101FB1078FB
:10289000A88900F4004040B1322000EBC800B0FB32
:1028A000F1F000F00700044308E0322000EB0810CC
:1028B0006421B0FBF1F000F00F0004432C81BDE86F
:1028C000FF874FF41651016000218180C180018192
:1028D0000C21418100218181704710B50246002002
:1028E000108A20F470600B884C8823438C88234323
:1028F000CC8823431843108210BD00210180418001
:102900008180C180704721B1828942F40052828166
:1029100004E082894DF6FF731A4082817047028B72
:1029200002F47F420283028B0A430283704721B183
:10293000828942F40042828103E08289C2F30E025E
:102940008281704721B1828A42F40062828204E06F
:10295000828A4FF2FF731A4082827047C1F30802E5
:102960008280704701468888C0F308007047028A59
:102970004FF6F0731A400282028A0A4302827047BD
:1029800021B1828942F00202828104E082894FF6FD
:10299000FD731A408281704782894FF2FF731A409B
:1029A000828182890A4382817047028A4FF6DF73EF
:1029B0001A400282028A0A430282704721B1028AC7
:1029C00042F48042028204E0028A4BF6FF731A400E
:1029D00002827047818941F001018181704721B1F4
:1029E000828A42F00802828204E0828A4FF6F773FC
:1029F0001A4082827047028BD2B20283028B42EA73
:102A000001220283704721B1828A42F02002828231
:102A100004E0828A4FF6DF731A408282704721B148
:102A2000828A42F01002828204E0828A4FF6EF73BB
:102A30001A4082827047828A4FF6FB731A40828264
:102A4000828A0A438282704721B1828A42F002025E
:102A5000828204E0828A4FF6FD731A4082827047B8
:102A60001AB1838A0B43838202E0838A8B43838279
:102A70007047F0B50346002400260025002040F6EC
:102A80006A17B94200D100BF1846C1F3421401F0E1
:102A90001F06012707FA06F5012C01D10C3004E0CE
:102AA000022C01D1103000E014301AB107682F4316
:102AB000076002E00768AF430760F0BD02460020F0
:102AC000B1F5007F00D100BF13880B400BB101208E
:102AD00000E00020704701F40072B2F5007F00D1E1
:102AE00000BFCA430280704770B50246002400232D
:102AF0000025002040F66A16B14200D100BFC1F3A4
:102B0000421501F01F03012606FA03F3012D13D12C
:102B10009689334017E00000001001400044004057
:102B200000480040004C00400050004000140140AC
:102B300000780040007C0040022D02D1168A33400C
:102B400001E0968A33400C12012606FA04F4168836
:102B5000344013B10CB1012000E0002070BD10B56D
:102B60000022002340F66A14A14200D100BF0A12DD
:102B700001249440A3B2DC43048010BD00BF704721
:102B800000BF394A128802F04002002AF9D0C2B2CE
:102B9000354B1B1D1A80704710B540F22551334844
:102BA000FFF7A2FF10BD10B540F225512E48FFF7E8
:102BB0009BFF10BD10B540F225512D48FFF794FF43
:102BC00010BD70B504460D46C5F30800A08000BFD7
:102BD00080212046FFF772FF0028F9D070BD0FB4A6
:102BE00010B501210398FEF7AFFD01210E9A04985C
:102BF00090479DF80A209DF808100C98FEF791FB6D
:102C00009DF80A209DF809100C98FEF78AFB05A98B
:102C10000C98FEF7FBFA07A90D98FFF7ECFD0121D0
:102C20000D98FFF770FE9DF80B0060B140210D98E4
:102C3000FFF751FF012240F225510D98FFF719FFD0
:102C40000BA8FDF764FD10BC5DF814FB0FB410B5C4
:102C500000210E9A0498904700210D98FFF753FE2B
:102C600010BC5DF814FB000000440040001001405F
:102C70000048004000BFEFF31081084672B670476D
:102C800000BF80F3108800BF70476F48036840683A
:102C90005A1C40F100006C490A60486070476A495C
:102CA00008684968704770B5FFF7E4FF0646664953
:102CB0000C6849684FF0E02085696448006800F0BE
:102CC000806018B1641C4FF0E02085693046FFF742
:102CD000D7FF5F48401B4FF47A7148435C49491C59
:102CE000B0FBF1F04FF47A72A4FB0223801843F199
:102CF000000170BD10B50246FFF7D1FF831800BF79
:102D0000FFF7CDFFC01A71F10001F9D310BD01B575
:102D100000BF0098411E00910028FAD108BD01B5FE
:102D20004C4A0099126801FB02F0FFF7F0FF08BD62
:102D30002DE9F041FFF7B7FF06460F464CF2503041
:102D4000FFF7E5FFFFF7AFFF841B61EB07050021ED
:102D500084EA01006940084301D10124002522468C
:102D60002B464CF25030002100F021FF3949086019
:102D70000846006808B901200860BDE8F08110B578
:102D800033484FF0E021486148170021002808DA55
:102D90000A07140E2D4A143200F00F031B1FD454DF
:102DA00003E00A07130E2C4A135400BF00204FF013
:102DB000E021886107200861FFF7BAFF10BD2DE907
:102DC000F04704460D4692464FF47A72002320469F
:102DD000294600F0ECFEAAF802204FF47A72002394
:102DE0002046294600F0E3FE06463C22002300F080
:102DF000DEFE8AF801204FF47A720023204629462D
:102E000000F0D5FE80463C22002300F0D0FE0646AE
:102E10003C22002300F0CBFE8AF800204FF47A72A7
:102E200000232046294600F0C2FE06463C2200232D
:102E300000F0BDFE80463C22002300F0B8FECAF838
:102E40000400BDE8F0870000E800002004ED00E089
:102E50003E900200D800002000E400E00FB410B55E
:102E60000121179A049890470121169A05989047D6
:102E70009DF809209DF808101398FEF752FA07A94B
:102E80001398FEF7C3F909A91398FEF7BFF90BA928
:102E90000698FEF7A4FE0EA9189A06989047BDF86A
:102EA0000C10159A069890479DF850100698FEF75A
:102EB00001FFBDF80A1000220698FFF787F910BC41
:102EC0005DF814FB0FB410B50021169A05989047D1
:102ED0000021159A0698904700210698FEF7EAFE11
:102EE00010BC5DF814FB0FB410B507A8FDF70FFC7C
:102EF0000398FEF7C7FD0121089A0298904704A99C
:102F00000398FEF76CFE01210398FFF71DFB0122D9
:102F100011460398FFF704FB01210398FEF7E8FE32
:102F200010BC5DF814FB0FB410B50398FEF7AAFDB2
:102F300000210398FEF7DCFE10BC5DF814FB0FB413
:102F400010B50121179A049890470121169A059807
:102F500090479DF809209DF808101398FEF7E1F9B5
:102F600007A91398FEF752F909A91398FEF74EF92D
:102F700010BC5DF814FB0FB470B5DDE91B45A8B2B9
:102F8000ADF834000E94322060436421B0FBF1F1BF
:102F900012910DA90898FEF722FE10A91A9A089816
:102FA0009047BDF81410179A089890479DF858104C
:102FB0000898FEF77FFE01210898FEF799FE70BC85
:102FC0005DF814FB0B4908684968704710B501218A
:102FD0000948FFF7BCFA60B101210748FFF7C8FABA
:102FE000044802684068521C40F1000001490A6030
:102FF000486010BDF800002000040140FCB5024606
:103000000F462F2400BF00208DF805008DF8040026
:103010008DF803008DF8020001208DF801000720D3
:103020008DF800002F2400250521002309E0601EF3
:10303000C4B2072B02DA581CC3B202E00023481EB8
:10304000C1B2505C4FF0800C4CFA03FC00EA0C005B
:1030500008B90029EBDCA4F10800C5B21EE0052187
:1030600018E0481E1DF8000000F0800018B100298B
:1030700001DD012600E000261DF801004006000EDB
:103080000DF801001DF801003044C0B20DF8010038
:10309000481EC1B2FF29E4DB681EC5B2002DDED197
:1030A000002107E0505C1DF801C080EA0C0050547C
:1030B000481CC1B20529F5DD082CA4DC1078FCBD44
:1030C00010B502684C000323A3409A4302600268D3
:1030D0004C000023A3401A43026010BD10B50268E3
:1030E0004C000323A3409A43026002684C00012372
:1030F000A3401A43026010BD2DE9F04106460F4679
:1031000014461D46DDF8188039463046FFF7E6FFC5
:1031100021463046FEF7F6F80120FFF700FE414653
:103120002846FEF7EFF80520FFF7F9FD2146304667
:10313000FEF7EAF80A20FFF7F2FD41462846FEF7BF
:10314000E3F80220FFF7EBFDBDE8F0812DE9F04147
:1031500006460F4614461D46DDF8188039463046AF
:10316000FFF7BCFF41462846FEF7CEF80520FFF7E3
:10317000D6FD21463046FEF7C7F80520FFF7CFFD04
:1031800041462846FEF7BEF80520FFF7C8FD214658
:103190003046FEF7B7F8BDE8F0812DE9F047044668
:1031A0000D4616461F46DDE9088931462846FFF7D9
:1031B00095FF24B939462846FEF7A6F803E03946BC
:1031C0002846FEF79FF80220FFF7A9FD4946404632
:1031D000FEF798F80A20FFF7A2FD49464046FEF7A1
:1031E00093F80A20FFF79BFDBDE8F0872DE9F04733
:1031F0000746884615461E46DDF82090414638466B
:10320000FFF75EFF49463046FEF77CF80220FFF7E5
:1032100086FD29463846FEF75BF808B1012400E038
:1032200000240220FFF77BFD49463046FEF76CF88C
:103230000320FFF774FD2046BDE8F0872DE9FC5F11
:1032400004460F4690469946DDE90C564FF0080AB1
:1032500019E004F0800040B14B4642463946012057
:10326000CDE90056FFF799FF07E04B464246394645
:103270000020CDE90056FFF790FF6006040EAAF18A
:10328000010000F0FF0ABAF1000FE2D12B464A46D6
:10329000414638460096FFF7A9FF83465846BDE8E9
:1032A000FC9F2DE9FC5F83460D4616461F46DDE96F
:1032B0000C894FF0080A15E043463A463146284645
:1032C000CDF80090FFF792FF20B16006040E44F0A5
:1032D000010403E06006040E04F0FE04AAF10100FC
:1032E00000F0FF0ABAF1000FE6D13B46324629460C
:1032F0005846CDE90089FFF750FF2046BDE8FC9F06
:103300000FB42DE9FF5F07460D4690464FF00009C8
:10331000CA467806040E139880B20090DDF854C0B7
:103320001FFA8CF29DF84410DDE91730FFF7E4FE38
:10333000139880B21799CDE90010DDF854C01FFA38
:103340008CF39DF8442020461899FFF777FF28B1A9
:10335000002004B0BDE8F01F5DF814FB139880B2A4
:103360001799CDE90010159883B29DF8442028469E
:103370001899FFF763FF08B10020EAE7139880B2BD
:103380000090DDF854C01FFA8CF29DF84410DDE97E
:103390001730FFF7B1FE139880B21799CDE90010EE
:1033A000DDF854C01FFA8CF39DF8442044F001006E
:1033B0001899FFF743FF08B10020CAE7139880B2BD
:1033C0001799CDE90010159883B29DF8442000208C
:1033D0001899FFF766FF8146139880B21799CDE9D7
:1033E0000010159883B29DF8442000201899FFF72B
:1033F00058FF8246139880B21799CDE900101598AE
:1034000083B29DF8442001201899FFF74AFF8346B4
:10341000139880B20090DDF854C01FFA8CF29DF82A
:103420004410DDE91730FFF791FE8DF80D408DF85F
:103430000C50601CC0B28DF80B008DF80A908DF80E
:1034400009A000208DF80800062102A8FFF7D6FD8C
:103450000646B34505D149EA0A20A8F80000012034
:1034600077E7002075E70FB42DE9FF4707460E46C2
:1034700014464FF00008C1467806050E2046E117B5
:1034800004EB1161C1F30729E11704EB1161091283
:10349000A4EB012101F0FF088DF80D508DF80C60B0
:1034A000681CC0B28DF80B008DF80A808DF8099069
:1034B00000208DF80800062102A8FFF79FFD824634
:1034C000119880B20090DDF84CC01FFA8CF29DF884
:1034D0003C10DDE91530FFF70FFE119880B2159909
:1034E000CDE90010DDF84CC01FFA8CF39DF83C20AC
:1034F00028461699FFF7A2FE28B1002004B0BDE8C7
:10350000F0075DF814FB119880B21599CDE9001011
:10351000139883B29DF83C2030461699FFF78EFE33
:1035200008B10020EAE7119880B21599CDE90010A2
:10353000139883B29DF83C2040461699FFF77EFE13
:1035400008B10020DAE7119880B21599CDE9001092
:10355000139883B29DF83C2048461699FFF76EFEFB
:1035600008B10020CAE7119880B21599CDE9001082
:10357000139883B29DF83C2050461699FFF75EFEE3
:1035800008B10020BAE7119880B20090DDF84CC075
:103590001FFA8CF29DF83C10DDE91530FFF7D6FDDF
:1035A0000020ABE70FB430B589B0044600252022D7
:1035B0000EA9684600F0A4FC002210215B200D9BA0
:1035C000FFF751FF05465DB120220EA9684600F0C5
:1035D00097FC2246102100200D9BFFF744FF054673
:1035E000284609B030BC5DF814FB0FB430B52DEDA2
:1035F000068B89B004460025202214A9684600F0F5
:103600007FFC08AA27215B20139BFFF779FE054664
:10361000C5B1BDF8200001F0F0FE41EC1A0B9FEDA2
:10362000340B53EC102B01F0FBFE41EC190B9FED1A
:10363000320B53EC102B01F0F1FF41EC180B01F0B1
:103640007DFC2060284609B0BDEC068B30BC5DF8DF
:1036500014FB0FB430B52DED068B89B00446002560
:10366000202214A9684600F04BFC08AA26215B2002
:10367000139BFFF745FE0546C5B1BDF8200001F0DC
:10368000BCFE41EC1A0B9FED1A0B53EC102B01F012
:10369000C7FE41EC190B9FED180B53EC102B01F0FA
:1036A000BDFF41EC180B01F049FC2060284609B031
:1036B000BDEC068B30BC5DF814FB0FB410B50121D6
:1036C0000A9A0398904704A90898FDF79FFD06A958
:1036D0000998FDF79BFD049A91B20898FDF712FE38
:1036E000069A91B20998FDF70DFE10BC5DF814FB27
:1036F0007B14AE47E17A943F666666666612714057
:1037000010B52DED068B0446204601F076FE41EC07
:103710001A0B9FEDD40B53EC102B01F0E9FC41EC9C
:10372000190B9FEDD20B53EC102B01F079FE41ECFD
:10373000180B01F035FEBDEC068B10BD10B504462C
:10374000FFF7ADFA41F270730022181A8A4121D3B3
:10375000C84840882080C7480088E080E088FFF79C
:10376000CFFF00EE100AB8EE400A84ED040A20886C
:10377000FFF7C6FF00EE100AB8EE400ADFEDBE0A02
:1037800080EE201A84ED051ABC4801684068BC4AE6
:1037900011605060FFF783FAB94B1A685B68821AB0
:1037A00061EB030140F6B833D21A71F100015BD32B
:1037B000207B0A2801D100202073207B60B90020E3
:1037C00060802081AB484088A080AA480088608142
:1037D00000202080E0803DE0A6484088A188884203
:1037E00007DA2088A18808442080A2484088A08069
:1037F00011E0A04840886188884207DD2088618800
:10380000084420809B484088608004E020889949D3
:10381000498808442080974800886189884207DAEF
:10382000E08861890844E08092480088608111E066
:10383000904800882189884207DDE0882189084472
:10384000E0808C480088208104E0E088894909886C
:103850000844E080207B401C40B220738748016808
:103860004068874A1160506010BD70B50446207BE7
:103870000A281DD1E588E91705EB5171C810FFF73B
:103880003FFF00EE100AB8EE400A84ED040A2588D6
:10389000E91705EB5171C810FFF732FF00EE100A6F
:1038A000B8EE400ADFED740A80EE201A84ED051AA6
:1038B00070BD10B5044694ED040ADFED720AB4EE53
:1038C000E00AF1EE10FA35D2FFF7E9F96E4A136813
:1038D0005268C01A61EB02014FF47A72801A71F1DA
:1038E00000011BD3684801684068002359405840D4
:1038F000014313D05F48008847F23051884205DA0F
:10390000FFF7CDF961480168406802E00020604996
:103910000870FFF7C4F95C4A106051605C48007899
:1039200058B9FFF7BCF9594A106051600120584955
:10393000087002E000205649087010BD0FB410B5A1
:103940000121299A079890470121289A09989047C0
:1039500019A92698FDF75AFC01212A9A099890473F
:1039600000212A9A099890471BA8FCF775FF1FA908
:103970002798FCF742FF9DF81A309DF8111001229C
:103980002798FCF7C0FF9DF81A309DF81610022208
:103990002798FCF7B8FF01212798FDF75FF8012170
:1039A0002798FDF750F801212798FCF76CFF0121BB
:1039B000299A0898904737490B912E490C910AA9EA
:1039C0002598FDF7E3F901212598FDF719FA10BCB8
:1039D0005DF814FB0FB410B500212798FDF733F8FC
:1039E00000212798FCF74FFF10BC5DF814FB002165
:1039F0000180C18041800181818041819FED260A43
:103A000080ED040A01739FED240A80ED050A7047DA
:103A100010B52DED068B0446204601F0EEFC41EC7E
:103A20001A0B9FED100B53EC102B01F061FB41ECD6
:103A3000190B9FED0E0B53EC102B01F0F1FC41EC38
:103A4000180B01F0ADFCBDEC068B10BD10B50446A3
:103A50002046FFF773FE2046FFF707FF2046FFF7DB
:103A600028FF10BD0000000000FEAF400000000075
:103A700000C8A940D0020020713D0A3EE8000020A5
:103A8000D80200200060EA46E0020020E8020020A0
:103A9000F00200204C220140000000000FB410B5DD
:103AA00001210D9A0498904701210E9A039890479E
:103AB00006A90B98FDF7AAFB9DF808109DF80900D0
:103AC0000F9A90470598FDF712FB08A8FDF79EFA9C
:103AD0000AA8FCF71CFE10BC5DF814FB70472DE92A
:103AE000F05F2DED028B04460D4690469946DDE9C8
:103AF0000C679FED2A0AB0EE408A29E0B4EB080279
:103B000065EB0901104601F09EFE00EE100AB0EED2
:103B1000001AC0EE010A9FED220AC0EE808AFFF76C
:103B2000BEF8B0EB060A61EB0701504601F08BFED0
:103B300000EE100ADFED1B0A80EE201A88EE810AE3
:103B4000B0EE408AA046A946FFF7A9F806460F4600
:103B5000FFF7A5F8801B61EB07014FF47A73C01AD9
:103B600071F10001CAD2B0EE480ABDEC028BBDE88B
:103B7000F09F10B50C49C868FDF7AEFA60B10A496C
:103B8000C868FDF7B4FA0848D0E91020521C40F18B
:103B900000000549C1E9102010BD00000000000030
:103BA0000000484200007A44B0030020704753EA06
:103BB000020C00F069802DE9F04B4FF00006002B5D
:103BC0001FBFB3FA83F503FA05F424FA05F65E4045
:103BD00012BF1643B2FA82F502FA05F4C5F12005C8
:103BE0001EBF22FA05FC44EA0C04203556EA044CB8
:103BF0004FEA144418BF641C4FF000084FF000094E
:103C0000904271EB030C39D3002919BFB1FA81F747
:103C100001FA07F6B0FA80F700FA07F6C7F12007B5
:103C20001EBF20FA07FC46EA0C062037B6FBF4FC60
:103C3000A7EB0507103F07F01F0BCBF120060CFA8E
:103C40000BFB2CFA06F644BFB3460026202FA4BF78
:103C50005E464FF0000B5BEA060C08BF4FF0010B0D
:103C600019EB0B09ABFB027C48EB0608C01B06FBFB
:103C700002CC0BFB03CC71EB0C01C1E70B460246F7
:103C800041464846BDE8F08B13B54FF000004FF0B9
:103C90000001AFF30080BDE81C4070470FB4044939
:103CA00010B503AA029800F00BFC10BC5DF814FBE1
:103CB0002C0000202DE9F0410646002410687529EB
:103CC000314615A510D0AFF30080002802DA40423B
:103CD00012A507E031688A0701D511A502E049075E
:103CE00004D510A5012401E0AFF3008000210A23D0
:103CF00006F1240707E0B0FBF3F203FB12003030BB
:103D000078541046491C0028F5D123462A463046EF
:103D1000BDE8F04100F06FB9000000002D00000088
:103D20002B000000200000002DE9F0418046D21D4C
:103D300022F007020025D2E90002F52914A612D0CC
:103D4000002A06DA0023D0EB030063EB020211A67F
:103D500008E0D8F800108B0701D50FA602E049074C
:103D600001D50EA601251146002408F1240704E020
:103D700000F0FCF830323A55641C50EA0102F7D1E9
:103D80002B46324621464046BDE8F04100F033B9AB
:103D9000000000002D0000002B00000020000000AB
:103DA0002DE9F0474FF0000A89460446C0F820A0EC
:103DB0002046E1688847002876D0252806D0D4E937
:103DC00001219047206A401C2062F1E7E16820460B
:103DD00000268847C4F81CA005460027C4F818A090
:103DE0002A2D09D0284601F08CF838B304EB870857
:103DF000303DC8F8185019E059F8041B204604EB70
:103E000087029161E1688847012F054618D1E06972
:103E1000002820DA26F020061DE0D8F8180000EB74
:103E2000800005EB40003038C8F818002046E168F3
:103E30008847054601F065F80028EED1012F0AD029
:103E40002E2D08D12046E16888477F1C0546022FA9
:103E500046F02006C4DBA069002803DA404246F0A1
:103E60000106A061F00701D026F010066C2D0AD0E3
:103E7000682D08D04C2D39D06A2D35D0742D35D011
:103E80007A2D33D016E0E1682F4620468847B842A5
:103E900005460AD16C2F27D04FF48060E1680643B5
:103EA00020468847054605E027E06C2F1AD04FF4DE
:103EB000807006430DB3A5F14100192802D82035C2
:103EC00046F400664A462946204626604E46FCF7E0
:103ED000B5F980B101280BD0F61D26F0070000F1DE
:103EE000080965E74020E4E78020D7E70020D5E710
:103EF00006F104095CE7284661E7206ABDE8F0871F
:103F000010B5203AC0F00B80B1E81850203AA0E874
:103F10001850B1E81850A0E81850BFF4F5AF5FEAA8
:103F2000027C24BFB1E81850A0E8185044BF18C95B
:103F300018C0BDE810405FEA827C24BF51F8043B02
:103F400040F8043B08BF7047D20728BF31F8023B56
:103F500048BF11F8012B28BF20F8023B48BF00F8EA
:103F6000012B7047704770477047704730B5B0F10C
:103F70000A024FEA900E71F100034EEA817EB0EB27
:103F80000E0061EB91014FEA101E4EEA017E10EB2C
:103F90000E0041EB11114FEA102E4EEA016E10EBAC
:103FA0000E0041EB11214FEA104E4EEA014E10EB8C
:103FB0000E0041EB1141401841F100014FEAD000E1
:103FC00040EA41704FEAD10110EB80054FEA8104CD
:103FD00044EA907444EB01046D1944EB0404521B51
:103FE000A3414FF0000348BF0A3200D530BD401C4A
:103FF00041F1000130BD2DE9F0470D46994692464A
:10400000044600F124080168880604D5E06921F01F
:104010001001216000E00120A84201DD471B00E003
:104020000027A1697A1902EB0900081AA06120781B
:10403000C00602D42046AFF30080002608E0D4E991
:1040400001211AF806009047206A401C761C206265
:104050004E45F4DB2078C0060AD52046AFF3008039
:1040600006E0D4E9012130209047206A401C2062FC
:10407000381EA7F10107F4DC07E0D4E9012118F8A4
:1040800005009047206A401C2062281EA5F101050A
:10409000F3DC2046AFF300802078000602D5022032
:1040A000BDE8F0870120FBE770472DE9FF4F0C4684
:1040B0001E464FF0FF378BB0D2E90001DDF860807B
:1040C0000A908A46C1F30A5505B93D4600210846C3
:1040D0004FF00000BAF1000F00F4400005DA00EBE9
:1040E00080004FF4400101EA50004FEA9059B9F1C5
:1040F000010F00DDB9460A9850EA4A000ED044F696
:104100001050A5F2FF3545432F14B8F1000F1ED013
:104110007542291E1EDDC9F100021CE0B8F1010F35
:104120004FF0000001D0302103E0F24305E02154BC
:10413000401CB042FBDB30460022002121540B9989
:10414000C1F80880C1E900200FB0BDE8F08FBD1BA9
:104150006D1CDEE74A4600DA694206A800F01EFA46
:1041600006AB93E8070003AB83E8070050460A99C3
:1041700000F0F4FA8DE80700A0F500501F38009019
:104180000398002D09DD42F21F014A46084403A9A5
:104190000390684600F053FD08E0A0F500504A4641
:1041A0001F3803A90390684600F05DFD8DE8070005
:1041B0000004000C03D04FF0FF30410800E010462F
:1041C000B8F1000F03D00022009215461EE0751EC4
:1041D00005D4FFF7CBFE303262556D1EF9D5B346DC
:1041E0000122084302D000227F1C04E020783028FE
:1041F00001D100227F1E002A099786D01DE0112DD3
:1042000007DAFFF7B3FE303262556D1C50EA010247
:10421000F5D1084302D00098C8B10EE00021681E15
:1042200005E0235C625C63542254401E491C8142B9
:10423000F7DBAB46A81B401E0990002004F80B00DA
:104240000B98099AC0F80880C0E9002B7CE711267A
:104250004FF0000859E72DE9F04F88460446D21D7B
:1042600022F0070191B0D1E90001CDE90A0100F087
:1042700030FE02460B98C00F01D02D2007E02068C9
:10428000810701D52B2002E0202101EAC000032A8A
:10429000099001D0072A05DB03464146204600F07D
:1042A0003DF909E12078800601D5E06900E00620AB
:1042B000B8F1650F814606D0B8F1660F18D0B8F195
:1042C000670F70D131E00020B9F1110F009001DBD0
:1042D000112301E009F101030AAA01A90CA8FFF7C3
:1042E000E4FEDDE90C70002609F10105834647E094
:1042F00001204B4600904FF000470AAA01A90CA8E4
:10430000FFF7D3FEDDE90DB00C995D46002610B92C
:1043100009F101000D18B9EB050003D4C0F1FF3617
:1043200009F10105A5EB09002BE0B9F1010F01DA54
:104330004FF001090020B9F1110F0090484601DD4E
:10434000112300E003460AAA01A90CA8FFF7ADFE5D
:10435000DDE90C704D4600268346207800070AD41C
:10436000AB4500DA5D4601A8012D04DD411911F8C5
:10437000011C302907D04F4502DA17F1040F04DA87
:10438000012082460FE06D1EEEE7002F02DCED1BE0
:104390003E4403E0781CA84200DD7D1CB81B00F100
:1043A000010A4FF000472078000703D4AA4501DB3B
:1043B0004FF0FF3A0021B7F1004F0DF143088DF89F
:1043C000431022D002202B23002F01DA7F422D231D
:1043D0004FF00A0C011EA0F1010000DC47B197FB71
:1043E000FCF10CFB11720F46303208F8012DF1E799
:1043F000A8F1010003702188090501D5452100E0DD
:104400006521A0F1010800F8011C09980FA9A1EB92
:104410000807FF1D00B10120411901EBEA70A169F5
:104420003844081A401EA0612078C00602D42046F5
:10443000AFF30080099828B1D4E901219047206AA0
:10444000401C20622078C00622D52046AFF30080B1
:104450001EE0002E04DBB34502DD01A8805D00E014
:104460003020D4E901219047206A401C2062761C4C
:10447000AAF101005FEA000A0AD100F033F8C0682F
:104480000168405CD4E901219047206A401C206209
:10449000281EA5F10105DCDC07E0D4E9012118F8AC
:1044A000010B9047206A401C2062381EA7F10107CB
:1044B000F3DC2046AFF30080022011B045E6000097
:1044C000074B70B50D467B4400F015F804462846AE
:1044D00000F0D0F810B14FF0FF3070BD204670BD35
:1044E000B7E6FFFF004870473004002001694A1C0E
:1044F00002610878704700B58FB0CDE90131002125
:10450000059105497944CDE9031011466846FFF746
:1045100047FC0FB000BD0000E5FFFFFF2DE9F041B3
:104520001F46044603260168072A01F4006004DBE5
:1045300008B116A505E016A503E008B115A500E031
:1045400015A521F010002060A069C01EA0610FB168
:10455000401EA0612046AFF300804FB1D4E9012195
:1045600038469047206A401C2062C01C206206E04A
:10457000206AFAE7D4E9012115F8010B9047761E6D
:10458000F8D22046AFF30080BDE8F0814E414E00E6
:104590006E616E00494E4600696E66002DE9F04777
:1045A000814616468AB0324878440DC88DE80D0021
:1045B0002F487844801C03AC0DC884E80D0041F6F8
:1045C0009B303722014491FBF2F0A0F1800502FB01
:1045D00010141B3C02D56442012000E00020DFF8EB
:1045E00090A080460027FA44AAF1BA0A0DE0E0073D
:1045F00009D03246684607EB47010AEB810100F01B
:1046000032FB8DE8070064107F1C002CEFD1184F9F
:104610007F44A83F18E0E80714D007EB04100DF121
:10462000180A90E80E008AE80E00C068F04201D136
:1046300098190890324606A903A800F014FB03ABB2
:1046400083E807006D10641C002DE4D132466946F2
:10465000B8F1000F03A802D000F0F1FA01E000F079
:1046600002FBC9E90001C9F808200AB0BDE8F087DB
:104670001C140000007B00F0800070470048704769
:10468000100400207546FFF7F9FFAE4605006946A5
:10469000534620F00700854618B020B5FCF720F8F7
:1046A000BDE820404FF000064FF000074FF0000833
:1046B0004FF0000B21F00701AC46ACE8C009ACE8B4
:1046C000C009ACE8C009ACE8C0098D467047044693
:1046D000AFF300802046FBF7D8FD00004FF0013C0F
:1046E00050F8042B51F8043B9A4221D1A2EB0C0361
:1046F000934313EACC1317D150F8042B51F8043B21
:104700009A4215D1A2EB0C03934313EACC130BD1BD
:1047100050F8042B51F8043B9A4209D1A2EB0C0348
:10472000934313EACC13DBD04FF00000704700BF77
:10473000D01A01BAB1FA81F101F0180122FA01F0A0
:10474000CB40C1F12001DBB2C0B2C01A2CFA01F398
:10475000D11A914311EAC311E6D170475FEA400CC8
:1047600008BF91F0000F4FEA8C234FEAC12243EAC1
:1047700051514FEA1C5018BF00F5F0404FEA30008D
:1047800018BF41F000415FEA6C5C00F02980BCF189
:10479000FF3F08BF40F080407047130C06BF120473
:1047A0004FF0100C4FF0000C130E04BF12020CF16E
:1047B000080C130F04BF12010CF1040C930F04BF7B
:1047C00092000CF1020CD30F04BF52000CF1010C4B
:1047D00011464FF00002A0F11F00A0EB0C00704743
:1047E00011F0004F08BF704731F000413FF4D5AFE2
:1047F0000B0C06BF09044FF0100C4FF0000C0B0E11
:1048000004BF09020CF1080C0B0F04BF09010CF1E5
:10481000040C8B0F04BF89000CF1020CCB0F04BFFA
:1048200049000CF1010CCCF12003A0EB0C0022FAA2
:1048300003F302FA0CF241EA030100F101007047B0
:1048400020F07F4C80EA030023F07F47ACEB0703A6
:1048500003F57C5300F0004003F1FF032DE980498C
:104860004FEA154B09B44FEA144325EA0B4E24EAEC
:1048700003480FF2042606EB132749083E785FEA47
:10488000320203FB0667C7F5000707FB06F64FEA8F
:1048900054374FEAD64606F1020607FB066CCCF108
:1048A000005C4FEA1C472CEA074C07FB06F40CFBA4
:1048B00006F504EB15464FEA961634BF00204FF07C
:1048C00000404FEAD13706FB07FC4FEA1C4C0CFBBB
:1048D0000BF7D21B03FB0CF761EB07010CFB0EF788
:1048E000B0EB074072EB17420CFB08F734BFA2EBAA
:1048F0000742B2EB074261EB17414FEA0C444FEA23
:10490000910706FB07FC4FEA1C4C0CFB0BF7B0EBC6
:10491000C74072EB573203FB0CF734BFA2EBC74220
:10492000B2EBC74261EB57310CFB0EF7B0EBC7009F
:1049300072EB57720CFB08F734BFA2EBC702B2EB65
:10494000C70261EB5771039F4FEA816141EA9211FF
:1049500004EBCC044FEAD1374FEA826206FB07FC36
:1049600042EA90124FEA80604FEA1C4C0CFB0BF7B6
:10497000D21B03FB0CF761EB07010CFB0EF7B0EB4E
:10498000074072EB17420CFB08F734BFA2EB07425B
:10499000B2EB074261EB17414FEA8C554FEA9107A2
:1049A00004EB9C2406FB07FC4FEA1C4C0CFB0BF7AA
:1049B000B0EBC74072EB573203FB0CF734BFA2EBEE
:1049C000C742B2EBC74261EB57310CFB0EF7B0EBBD
:1049D000C70072EB57720CFB08F734BFA2EBC7029B
:1049E000B2EBC70261EB577115EB4C254FEA8161C1
:1049F00041EA92114FEA82624FEAD13742EA9012BD
:104A000006FB07FC44F100044FEA80604FEA1C4CAF
:104A10000CFB0BF7D21B03FB0CF761EB07010CFB44
:104A20000EF7B0EB074072EB17420CFB08F734BFF0
:104A3000A2EB0742B2EB074261EB174115EB1C15E5
:104A40004FEA813141EA92414FEA823242EA904292
:104A50004FEA80304FEA0C7644F1000448EA034301
:104A60004EEA0B484FF0000EB2EB080C71EB030757
:104A700024BF624639464EEB0E0E4FF0000B001875
:104A8000524149414BEB0B0BB2EB080C71EB0307A6
:104A90007BF1000B24BF624639464EEB0E0E4FF001
:104AA000000B0018524149414BEB0B0BB2EB080CC9
:104AB00071EB03077BF1000B24BF624639464EEBD6
:104AC0000E0E51EA020718BF46F0010616EB0E76ED
:104AD00055F1000254F1000103D5BDE88901BDE89C
:104AE0000088BDE88901B619BDE80048524141EB94
:104AF0000101A3F10103704780807F7E7D7C7B7A7A
:104B00007978777676757473727171706F6E6E6D79
:104B10006C6C6B6A6A69686867666665646463631F
:104B200062616160605F5F5E5E5D5D5C5C5B5B5AA5
:104B30005A59595858575756565555555454535312
:104B400052525251515050504F4F4F4E4E4D4D4D6D
:104B50004C4C4C4B4B4B4A4A4A49494948484847B8
:104B600047474746464645454544444444434343F6
:104B70004342424242414141002B26D4770021D09A
:104B80001CB54FEA370703B44FF010004FF0100187
:104B90004FF000000FBC0BF1010BBDE81040BBF162
:104BA000010F08BF5FEA170722BF12F1010211F1DE
:104BB00001014FF0004143F1000300F0004043EADF
:104BC00000007047F9D35708DAE746EA064613F1C2
:104BD000400F4FEA16461FDD13F1200FDFBF1643CB
:104BE0000A46002120335B42C8D0C3F1200746EAC1
:104BF000064602FA07F74FEA164646EA0706C3F1E9
:104C0000200722FA03F201FA07F721FA03F14FF025
:104C1000000342EA0702B1E746EA020646EA064610
:104C20004FEA164646EA0106BCBF46EA0646360C7F
:104C30004FF000034FF000024FF000019EE72DE916
:104C4000C048934630B491E8380007C831EA400CB8
:104C500048BF34EA430C03D5FFF7F2FDFFF78CFFA2
:104C6000F0BCBDE800882DE9C048934630B491E817
:104C7000380007C810F0804F08BF13F0804F03D1F1
:104C800000F005F8FFF778FFF0BCBDE8008820F0E1
:104C90007F4780EA030023F07F4C07EB0C03A3F56A
:104CA0007C5300F00040A3F1FE0392F0000F00F0EF
:104CB000B38095F0000F00F077802DE901494FEAAD
:104CC00011404FEA144621EA004800FB06FC24EAA2
:104CD000064708FB06F607FB08F800FB07F718EB8A
:104CE00006484CEB164C4FEA124B18EB07484FEABC
:104CF00015464CEB174022EA0B4E0BFB06FC25EA4F
:104D000006470EFB06F607FB0EFE0BFB07F71EEB36
:104D1000064E4CEB164C4FF000061EEB074E4CEBCC
:104D2000174B18EB0B0840F1000018EB0E0B58EB7B
:104D3000000840F100008F1A4FF000013CBFC9434A
:104D4000661B14BFB5EB040C00213CBFC943F61B26
:104D50004FEA17444EEA8E0E27EA04454FEA1C47F5
:104D600004FB07622CEA074C05FB07F70CFB05F672
:104D700004FB0CFC16EB074642EB174216EB0C4605
:104D800042EB1C421BEB060658EB0202414146EA8D
:104D90009E0601D5BDE80189B619524141EB0101DA
:104DA000A3F10103BDE801894FEA14454FEA114719
:104DB00024EA054621EA074C05FB07F406FB07F742
:104DC0000CFB06F105FB0CFC11EB074144EB17440F
:104DD0004FEA124711EB0C4144EB1C4422EA074C0A
:104DE00005FB07F206FB07F70CFB06F605FB0CFCC0
:104DF00016EB074642EB174216EB0C4642EB1C45FE
:104E00006A1854F1000148BF7047B619524141EB8E
:104E10000101A3F10103704795F0000F37D04FEA6D
:104E200011424FEA144721EA024624EA074C02FBEA
:104E300007F106FB07F70CFB06F402FB0CFC14EB76
:104E4000074441EB17414FEA154714EB0C4441EB83
:104E50001C4125EA074C02FB07F506FB07F70CFB94
:104E600006F602FB0CFC16EB074645EB174516EB66
:104E70000C4645EB1C42121951F1000148BF704726
:104E8000B619524141EB0101A3F1010370474FEA0A
:104E900014454FEA114724EA054621EA074C05FB71
:104EA00007F106FB07F70CFB06F24FF0000605FBC7
:104EB0000CFC12EB074241EB174112EB0C4251EB99
:104EC0001C4148BF7047921841EB0101A3F1010357
:104ED000704703B401984100009850EAC12018BF00
:104EE00004204A0D18BF40F0010040F2FF72B2EBFF
:104EF000515F08BF40F00200012808BF052002B042
:104F0000704730380A2801D20120704700207047CE
:104F100010B500290AD00878002807D00548784441
:104F2000FFF7DCFB002801D0002010BD02487844C8
:104F300010BD00004A0B0000420B000021F00042AF
:104F4000A2F16052B2F5801F01F0004328BFD2F1F8
:104F50007F6C0BD95FEA001C43EAC20242EB50703F
:104F600018BF704728BF20F001007047B2F5801FBE
:104F7000BCBF184670474FEA410C1CF5001F02D217
:104F8000084600F0DBBC70B500F0F4FA00000089C0
:104F9000FFF7F6BF4FF00040A0F58000704700001B
:104FA00010B591EA030F48BF83F0004300F13E8340
:104FB000841A71EB030C05D2121943EB0C03001B8E
:104FC00061EB0C01DFF824E14FEA1154A4EB135C10
:104FD0001EEA430F18BF9EEA445F73D023EA0E0314
:104FE000DCF1200E21EA045143F4801332D322FA7B
:104FF0000CFE10EB0E0023FA0CFE41EB0E01CCF17F
:10500000200E03FA0EFE10EB0E0051F10001B1F577
:10501000801FCCF1200E32D201EB045112FA0EF2B5
:10502000BDE8104058BF7047401C38BF5FEA4202DD
:1050300018BF7047002814BF20F0010041F10001A3
:105040004FEA410313F5001F38BF7047A1F1C0417B
:1050500000F0DEBA012A43EB0302ACF1200CDCF1D4
:105060001F0E32BF4FF0000E23FA0CF310EB0300BB
:1050700041EB0451B4EB115FD0D0A1EB045101F529
:10508000801149085FEA300001EB04510ED350F162
:10509000000038BF12FA0EFE08D1BDE81040C9E783
:1050A000401C38BF5FEA4202CAD1C3E7BDE81040E6
:1050B0004FEA410313F5001F38BF7047A1F1C0410B
:1050C00000F0A6BA9EEA445F08D011EA5E0FBDE880
:1050D000104004BF01F0004100207047BDE81040BF
:1050E00070B500F047FA00BF64FBBE3E0000E0FF71
:1050F0002DE9C04130B4DFF8A0C23CEA111418BF5A
:105100003CEA131400F0EC8081EA03051CEA111458
:1051100044EAD57418BF1CEA131500F0C780A4EB4D
:1051200005044FF0004545EAC12145EAC32341EAA1
:10513000505143EA525304F17F74994204F500340C
:105140004FEAC0204FEAC22208BF904200F09C8084
:105150004FEA13650FF24016765D4FEA134506FBE2
:1051600005F7C7F1807706FB07F74FEAD737A7FBAC
:1051700003687642C8F58038A7FB06CE38BFA8F191
:10518000010807FB08E64FF0000EA6FB028CE6FBC9
:1051900003CEDCF1000CCEF1004E38BFAEF1010EB3
:1051A000A6FB0C584FF000074FF00005E6FB0E87FA
:1051B000A1FB08C6A0FB07CE16EB0E0645F10005C5
:1051C000E1FB076515F1E04E7EBFA4F580345FEA90
:1051D00046066D4116F1800745F100054FEA172795
:1051E0004FEA066647EA0567A6F1DE46B6F1805F3C
:1051F0004FEA15251FD9384624F0010C05EBC47180
:10520000BCF1FE6F01EB0C1102D8F0BCBDE80081CF
:1052100024425CBF01F5801E9EEAC47F02D4F0BC2C
:10522000BDE80081244238D4F0BCA1F1C041BDE802
:10523000004100F0EDB94FEAD22242EA43524FEA70
:10524000D323A7FB02864FEAD02040EA415007FB58
:1052500003661EEA0E0F4FEAD12105FB026658BF16
:10526000A6EB0056B6EB00564FEA520E4EEAC37E4E
:1052700018EB0E0E56EB530EBDD518EB02085E412F
:105280007F1C55F10005B6E74FF480154FF000077D
:105290004FF000064FF00008ADE7F0BC4FF0000003
:1052A00001F1C04101F00041BDE8008111EA0C1F8D
:1052B0000CEA131500D00CE013EA0C1F00F0258057
:1052C0004FF00000F0BC81EA030101F00041BDE8AD
:1052D0000081F0BC81EA0301BDE8004100F098B90B
:1052E000F0BCBDE8004170B500F044F9097EFC3E19
:1052F00000F007B881EA03014FF0000001F000411F
:10530000704781EA030100F083B9F0BC4FF0000060
:105310002249BDE800417047FFFDFBF9F7F5F4F2C3
:10532000F0EEEDEBE9E8E6E4E3E1E0DEDDDBDAD840
:10533000D7D5D4D3D1D0CFCDCCCBCAC8C7C6C5C49E
:10534000C2C1C0BFBEBDBCBBBAB9B8B7B6B5B4B3B5
:10535000B2B1B0AFAEADACABAAA9A8A8A7A6A5A4A0
:10536000A3A3A2A1A09F9F9E9D9C9C9B9A99999864
:105370009797969595949393929191908F8F8E8E07
:105380008D8C8C8B8B8A8989888887878685858494
:1053900084838382828181800000FF070000F87F80
:1053A0004FEA1153A3F58063D3F11E03A8BFD3F1D5
:1053B000200C08DB4FF0004242EAC12252EA505270
:1053C00032FA03F0704709420BD4102BC4BF0020FF
:1053D000704703F5787CBCF1FF3F05D04FF0FF30FC
:1053E00070474FF00000704770B500F0C3F800BF81
:1053F0004992248000207047F0E7B0FA80F310FA59
:1054000003F10AD0C3F11D0303F580634FEA415055
:105410004FEA035202EBD12170474FF00000704772
:10542000DFF848C170B51CEA111E1EBF1CEA131537
:105430009EEA0C0F95EA0C0F00F06F8081EA0304DE
:1054400023EA4C134EEAD47E21EA4C1141F4801138
:1054500043F48013AE44A1FB024CA0FB0365AEF104
:105460007F7E361955EB0C05A1FB034C4CF1000374
:10547000A0FB021C16EB0C06654153F10003094228
:1054800018BF46F0010613F4007F0BD14FEA033139
:105490004FEA0530340341EA155140EA16506FF0E7
:1054A00003020AE04FEAC3214FEAC520F40241EAB1
:1054B000555140EA56506FF0020202EB2E4201EBCA
:1054C000025585EACE710AD05FEA440C18BF24F079
:1054D000004450F1000041F1000120EAD47040F294
:1054E000FE7C624500D270BDA84214BF4FF08044DC
:1054F0004FF04044002E08BF0024BEF1806FA8BFCB
:10550000A1F1C041BDE8704080F282804FF0000000
:1055100001F1C04101F0004170479EEA0C0F0CEA16
:10552000131518BF95EA0C0F06D04FF0000081EA62
:10553000030E0EF0004170BD00F01CF88900013E22
:1055400000F007B800F009B84FEA430C5FEA5C5C72
:1055500008D081EA030100F05BB84FEA410C5FEA32
:105560005C5CF6D14FF00000014970470000FF0776
:105570000000F87F0EF1020E2EF0030E5EF8046BB1
:10558000364205D4012A43EB030515F5001F12D856
:10559000012841EB010C1CF5001F0CD80ED14FEA7D
:1055A000D17C15F5001F0CEB4C0C0CF1020C08BF64
:1055B0004CEBD37C04E04FF0080C01E04FEAD37CC5
:1055C0000CEB4C0526FA05F606F00706B6F1040CBE
:1055D00006D20EEB860CBDE870404CF0010C604723
:1055E000DFE80CF0090B02024FF000414FF0000021
:1055F000A1F5002170BD19461046012851EB0104A8
:1056000018BFD4F5001484BF002001F0004170BD24
:105610000808A0F500114FEA3101704710B591EA72
:10562000030F48BF83F000433FF5C2AC841A71EB0F
:10563000030C07D212198CF0004C43EB0C03001B37
:1056400061EB0C01DFF8A4E14FEA1154A4EB135C09
:105650001EEA430F18BF9EEA445F00F0B08023EAC1
:105660006E03524221EA0451C3EB6E0338BF5B1E46
:10567000DCF1200E25D322FA0CFE10EB0E0043FACB
:105680000CFE41EB0E01CCF1200E03FA0EFE10EBE6
:105690000E0051F10001CCF1200E29D412FA0EF2C5
:1056A00001EB0451BDE8104058BF7047401C1CBFBF
:1056B000B2F1004F704700280CBF491C20F00100D8
:1056C000704712EB020E43EB030218BF4FF0010EBE
:1056D0004EEA4202ACF1200CDCF11E0E54D943FA22
:1056E0000CFE10EB0E0051F1FF31CCF11E0ED5D5A2
:1056F0000EF1010E12FA0EFE404141EB010101EBE9
:10570000445C5FEA5C5C10D910EBDE7001EB045185
:1057100038BFBEF1004FBDE8104018BF70470028E9
:105720000CBF491C20F00100704730D24FEAD42C46
:1057300011F5001124F400641BD0B1FA81F20B3A88
:10574000A41AA41ED2F12003914030FA03F31943A6
:10575000904001EBCC71002C01EB0451BDE81040EE
:10576000A8BF704701F1C0414FF0000001F00041B7
:105770007047B0FA80F310FA03F100D110BDE41ABB
:10578000173C4805C90AE4E701EB045110BD491074
:1057900001EB0451BDE810404FEA300002E04FF049
:1057A000000170474A0008BF0042F8D0B2F5001F60
:1057B00028BF704701F000414FF0000070479EEA9B
:1057C000445F07D011EA5E0FBDE8104004BF00211E
:1057D00000207047BDE8104070B5FFF7CBFE00BF5A
:1057E00040DFF63E83F00041104670470000E0FFC6
:1057F00043004FEAD30C4FEA3C0C43401FBF400725
:105800000CF1605113F0FE4F70471CF0006F03D194
:1058100000200CF0004170470CF0004343EA507048
:1058200010B540EACC0000F03EF800BF0000009246
:105830004FEA0001FFF7ECBE4FF000414FF00000CF
:10584000A1F5002170474FF07E5209E011F00042AF
:1058500004D54042C1F1000138BF491E42F07E52DA
:105860000B0002F1706212BF20235FEA0001704753
:10587000B1FA81FCA3EB0C0301FA0CF120FA03FC52
:1058800002EBC352C3F1200341EA0C0110FA03FCFE
:105890005CEA416C42EB112018BF5FF0806C28BFBE
:1058A00020F0010070470EF1020E2EF0030E5EF89C
:1058B000044B244204D44FEA4102B2F17F4F11D885
:1058C0004FEA4003B3F17F4F0CD80ED14FEAD07CA2
:1058D000B2F17F4F0CEB4C0C0CF1020C08BF4CEBFF
:1058E000D17C04E04FF0080C01E04FEAD17C0CEBD6
:1058F0004C0324FA03F404F00704B4F1040C06D2B8
:105900000EEB840CBDE810404CF0010C6047DFE862
:105910000CF0070802024FF00040A0F5800010BD17
:105920000846420018BFD2F1807288BF00F00040E4
:1059300010BD4FF04070E1EE100A7047FF2141EAC0
:10594000D050C0057047FEF786BC00000240000042
:10595000000000A00000000005400000000000C89A
:10596000000000000C4000000000409C000000000F
:10597000194000000020BCBE0000000034400000C0
:10598000BFC91B8E00000004B5400000504BCFD0B3
:105990006607E2CF010000006C4100003E8251AA80
:1059A000DFEEA73401000000D9420000DCB5A0E220
:1059B0003A301F97FFFFFFFFB4450000FD25A0C848
:1059C000E9A3C14FFFFFFFFFFF3F00000000008081
:1059D00000000000FF3F0000000000800000000009
:1059E000666C697465725F636F756E7465723A2078
:1059F00025642043757272656E745F6164637661BD
:105A00006C75653A20256420566F6C746167655F1C
:105A100061646376616C75653A20256420566F6C0D
:105A2000746167655F76616C75653A20252E326614
:105A30002043757272656E745F76616C75653A208D
:105A4000252E32660D0A0000845A0008000000204E
:105A500010040000C40100084C5C00081004002081
:105A600060060000200200081C0000004300000047
:105A7000F8FFFFFF0C0000000E0000000F00000008
:105A80002E00000091847A030A68090102030406CB
:105A90000708090CA910360706070102321032C0A8
:105AA000130202120173C201520C152501010114E7
:105AB00004024016100140FD1757080605070108AB
:105AC00012020A15603415260102011A0C34124420
:105AD0001B40DB344B0B0A68213A04230912344C77
